:020000040800F2
:100000005805002005010008AD090008090700088F
:10001000510700081D0300086B17000800000000CE
:10002000000000000000000000000000010E0008B9
:100030002904000800000000E90C00081D10000859
:10004000851800081F0100081F0100081F01000893
:100050001F0100081F0100081F0100081F01000800
:100060001F0100081F0100081F0100081F010008F0
:100070001F0100081F0100081F0100081F010008E0
:100080001F0100081F0100081F0100081F010008D0
:100090001F0100081F0100081F0100081F010008C0
:1000A0001F010008811000081F0100081F0100083F
:1000B0001F010008A51000081F0100081F0100080B
:1000C0001F0100081F0100081F0100081F01000890
:1000D0001F010008911400081F0100081F010008FB
:1000E0001F0100081F0100081F010008DFF810D0E1
:1000F00000F002F900480047F11B0008AFF3008050
:10010000580500200648804706480047FEE7FEE7FE
:10011000FEE7FEE7FEE7FEE7FEE7FEE7FEE7FEE7B7
:1001200021100008ED00000810B5002200E0521C6C
:10013000835C8C5CA34201D1002BF8D1D8B2E1B230
:10014000401A10BD80EA010210B502F000434000E1
:1001500022D04A001FD0010E01EB1261C0F35600FD
:10016000C2F3560240F4000042F40002A0FB022059
:1001700000047F39140400D0401C50EA124001D41E
:100180004000491EC2B20C0604EBD010401C4008CF
:10019000802A02D003E0002010BD20F001000029D9
:1001A00000DA0020184310BD30B480EA010202F0EA
:1001B000004530F0004221F0004013D090B1C30D53
:1001C000D40DC2F31601C0F31600E41A41F4000185
:1001D00040F400027D34914201D3641C00E04900E8
:1001E000002C02DA30BC002070474FF400000023DE
:1001F000914201D3891A034340084FEA4101F7D1E4
:1002000051B1914202D14FF0004105E002D24FF0CE
:10021000010101E06FF0010103EBC450284430BC40
:1002200000F032B896230022114600F036B800F0F4
:10023000004220F00040C10DC0F3160040F4000061
:100240007F2901DA00207047962903DCC1F196016D
:10025000C84001E096398840002AF4D040427047F7
:1002600020F00040C10DC0F3160040F400007F29CB
:1002700001DA00207047962903DCC1F19601C840DD
:1002800070479639884070470029A8BF7047401CC6
:10029000490008BF20F00100704710B4B0FA80FC9C
:1002A00000FA0CF050EA010404BF10BC704749B1D9
:1002B000CCF1200421FA04F411FA0CF118BF012149
:1002C00021430843A3EB0C01CB1D4FEA00614FEA29
:1002D000102042BF002010BC704700EBC3501044F8
:1002E0000029A4BF10BC7047401C490008BF20F083
:1002F000010010BC70470000064C074D06E0E068A6
:1003000040F0010394E8070098471034AC42F6D35C
:10031000FFF7F0FEFC1E00081C1F000800BFFEE7F0
:1003200010B50446A1B2002000F014FAA1B20020DA
:1003300000F030FAA1B2002000F04CFAA1B2002087
:1003400000F066FA10BD10B50446A1B2012000F01D
:1003500001FAA1B2012000F01DFAA1B2012000F0C3
:1003600039FAA1B2012000F053FA10BD10B50021F6
:10037000012000F0EFF90021012000F00BFA00212C
:10038000012000F027FA0021012000F041FA10BD01
:1003900010B50446A1B2012000F0DCF9A1B20020A2
:1003A00000F0F8F9A1B2012000F014FAA1B2002087
:1003B00000F02EFA10BD10B50446A1B2002000F0E6
:1003C000C9F9A1B2012000F0E5F9A1B2002000F0C6
:1003D00001FAA1B2012000F01BFA10BD10B50446CD
:1003E000A1B2002000F0B6F9A1B2012000F0D2F9CC
:1003F000A1B2012000F0EEF9A1B2002000F008FA4D
:1004000010BD10B50446A1B2012000F0A3F9A1B2BD
:10041000002000F0BFF9A1B2002000F0DBF9A1B28A
:10042000012000F0F5F910BD704700B5034603E068
:100430004FF47A7000F005F8181EA3F10103F7D10C
:1004400000BD00EBC001C9004FF0E0225161002166
:1004500091610521116100BF4FF0E021096901F4AC
:1004600080310029F8D004214FF0E022116170475B
:100470002DE9F0410246002500260020002300243B
:10048000002791F803C00CF00F0591F803C00CF0A1
:10049000100CBCF1000F03D091F802C04CEA050526
:1004A00091F800C0BCF1000F31D0146800202BE09F
:1004B0004FF0010C0CFA00F3B1F800C00CEA03068F
:1004C0009E4220D183004FF00F0C0CFA03F7BC437F
:1004D00005FA03FC4CEA040491F803C0BCF1280FB0
:1004E00006D14FF0010C0CFA00FCC2F814C00AE06F
:1004F00091F803C0BCF1480F05D14FF0010C0CFA84
:1005000000FCC2F810C0401C0828D1D31460B1F818
:1005100000C0BCF1FF0F34DD546800202EE000F174
:10052000080C4FF0010808FA0CF3B1F800C00CEA0F
:1005300003069E4221D183004FF00F0C0CFA03F703
:10054000BC4305FA03FC4CEA040491F803C0BCF177
:10055000280F05D100F1080C08FA0CF8C2F8148035
:1005600091F803C0BCF1480F07D100F1080C4FF01F
:10057000010808FA0CF8C2F81080401C0828CED3F5
:100580005460BDE8F0810000F0B50A460023002465
:100590000021002500F00046B6F1004F02D11D4EAB
:1005A000F16901E01B4E7168C0F3034583B200F4AA
:1005B0004016B6F5401F08D121F07061154E7668DF
:1005C00026F07066134F7E6012E000F48016B6F5D8
:1005D000801F06D1032606FA05F4A14341F070619D
:1005E00006E0460D360103FA06F6B14341F07061AC
:1005F00022B1460D360103FA06F6314300F00046FB
:10060000B6F1004F02D1034EF16101E0014E71607D
:10061000F0BD0000000001400246002093680B403E
:100620000BB1012000E0002070474161704701617B
:1006300070470AB1016100E04161704708B50121CE
:10064000182000F063FB10208DF80300C002ADF805
:10065000000003208DF8020069460A48FFF708FFF2
:1006600028208DF803004FF40040ADF800006946E3
:100670000548FFF7FDFE00224FF400410248FFF756
:10068000D8FF08BD000C01400010014010B5FFF775
:10069000D5FF00F001F810BD1FB50121022000F0C8
:1006A00025FB184800F05CFD0020ADF80A00ADF80D
:1006B00006000920ADF808004720ADF8040000202E
:1006C0008DF80C0001A90F4800F090FE01210D48A3
:1006D00000F0FEFC012211460A4800F038FD1D2002
:1006E0008DF8000002208DF801008DF80200012035
:1006F0008DF80300684600F05BF90121014800F025
:10070000EDFC1FBD0004004000BFFEE708B501215D
:10071000052000F0FBFA01210B48FFF735FF4FF4ED
:100720001940ADF8000010208DF8030003208DF86B
:10073000020069460548FFF79BFE4FF41941034844
:10074000FFF775FF08BD00000002300000080140FF
:1007500000BFFEE770B504460D46B5F57A7F01DBB4
:100760004FF47A7554B100214FF0804000F036FE0E
:1007700029464FF0804000F02FFE0AE04CB90021DE
:100780004FF0804000F028FE29464FF0804000F0F6
:1007900025FE70BD70B504460D46B5F57A7F01DBC8
:1007A0004FF47A7554B100214FF0804000F018FEEC
:1007B00029464FF0804000F015FE0AE04CB90021B8
:1007C0004FF0804000F00EFE29464FF0804000F0D0
:1007D00007FE70BD70B504460D46B5F57A7F01DBA6
:1007E0004FF47A7544B10021084800F0F5FD294620
:1007F000064800F0F3FD08E03CB90021034800F092
:10080000EDFD2946014800F0E7FD70BD00080040FD
:1008100070B504460D46B5F57A7F01DB4FF47A7565
:1008200044B10021084800F0DDFD2946064800F0EB
:10083000D7FD08E03CB90021034800F0D1FD29466E
:10084000014800F0CFFD70BD0008004000B589B040
:100850000121084600F04AFA0121042000F056FA6E
:1008600018208DF823000F20ADF8200003208DF80C
:10087000220008A94A48FFF7FBFD4FF0804000F036
:100880006FFC0020ADF81A00ADF8160040F2E7301A
:10089000ADF8180040F2CF20ADF8140000208DF81C
:1008A0001C0005A94FF0804000F0A0FD01A800F059
:1008B00089FD6020ADF804000020ADF80C00012097
:1008C000ADF806000020ADF80A0001A94FF0804005
:1008D00000F04CFC01A94FF0804000F093FC01A90E
:1008E0004FF0804000F0E0FC01A94FF0804000F0A4
:1008F0002BFD0121880700F0F1FB0121042000F00D
:10090000F5F90121082000F001FA18208DF82300E4
:100910004FF47070ADF8200003208DF8220008A974
:100920002048FFF7A5FD204800F01AFC0020ADF894
:100930001A00ADF8160040F2E730ADF8180040F2AA
:10094000CF20ADF8140000208DF81C0005A9164832
:1009500000F04CFD01A800F035FD6020ADF804006A
:100960000020ADF80C000120ADF806000020ADF825
:100970000A0001A90C4800F0F9FB01A90A4800F09F
:1009800041FC01A9084800F08FFC01A9064800F0CD
:10099000DBFC0121044800F0A1FB09B000BD000010
:1009A00000080140000C01400008004070470000B2
:1009B00070B5002100230F22C47804B3154C2468BD
:1009C00004F4E064C4F5E064210AC1F10403CA4000
:1009D000447804FA03F184781440214309010E4C51
:1009E0000678A155047804F01F050124AC40057871
:1009F0006D11AD0005F1E025C5F8004109E004786E
:100A000004F01F050124AC40044D0678761145F82A
:100A1000264070BD0CED00E000E400E080E100E065
:100A200002490143024A1160704700000000FA05C4
:100A30000CED00E010B510210148FFF7F8FD10BDE6
:100A40000008014010B510210148FFF7EEFD10BD70
:100A5000000801402DE9F041044601250026002749
:100A60001EE004F0010010B100F02AF801E000F0EF
:100A70002FF86410642000F033F800F0EBF86420E5
:100A800000F02EF800F012F808B17019C6B268062E
:100A9000050E00F0D7F8012000F022F8781CC7B24C
:100AA000072FDEDD3046BDE8F081000010B54021A3
:100AB0000248FFF7B1FD0446204610BD0008014082
:100AC00010B580210148FFF7B2FD10BD00080140BC
:100AD00010B580210148FFF7A8FD10BD00080140B6
:100AE00000E0401E0028FCD1704710B5FFF7AAFFB8
:100AF0006420FFF7F5FF0120FFF7ACFF4320FFF76D
:100B0000A9FF0020FFF7A6FF0120FFF7A3FF0020A9
:100B1000FFF7A0FF0020FFF79DFF0020FFF79AFFDF
:100B20000020FFF797FF0020FFF794FFFFF782FFF9
:100B30006420FFF7D5FF10BD10B5FFF783FF6420D9
:100B4000FFF7CEFF0120FFF785FF4320FFF782FF6D
:100B50000020FFF77FFF0020FFF77CFF5A20FFF700
:100B600079FF5A20FFF776FF5A20FFF773FF5A20CC
:100B7000FFF770FF5A20FFF76DFFFFF75BFF642060
:100B8000FFF7AEFF10BD000008B50121042000F002
:100B9000BDF8B020ADF8000010208DF80300032050
:100BA0008DF8020069460848FFF762FC4020ADF866
:100BB000000048208DF8030003208DF802006946EC
:100BC0000148FFF755FC08BD0008014010B5FFF7CC
:100BD000DBFF00F037F8FFF72DFF00F043F800F0DF
:100BE00041F800F03FF8FFF780FF00F056F8FFF7FC
:100BF000A3FF01F0F7F810BD10B50024FFF722FFA6
:100C00000A20FFF76DFF00BF0FE0022C06DA0B4948
:100C1000085DFFF71FFF0A49085504E00020FFF7B1
:100C200019FF07490855601CC4B2092CEDDBFFF71A
:100C300001FF0A20FFF754FF10BD0000350000201F
:100C40003401002010B520210148FFF7F0FC10BD51
:100C50000008014010B520210148FFF7E6FC10BD57
:100C60000008014010B5FFF7EDFE6420FFF738FFE4
:100C70000120FFF7EFFE4220FFF7ECFE0020FFF718
:100C8000E9FE0020FFF7E6FE0020FFF7E3FEFFF796
:100C9000D1FE6420FFF724FF10BD10B5FFF7D2FE90
:100CA0006420FFF71DFF0120FFF7D4FE4420FFF76B
:100CB000D1FE0020FFF7CEFE0120FFF7CBFEEE2095
:100CC000FFF7C8FE0020FFF7C5FE0020FFF7C2FEB9
:100CD0000020FFF7BFFE0020FFF7BCFEFFF7AAFED3
:100CE0006420FFF7FDFE10BD7047000029B1064AE1
:100CF000D2690243044BDA6104E0034AD2698243B9
:100D0000014BDA61704700000010024029B1064A29
:100D100092690243044B9A6104E0034A9269824358
:100D2000014B9A61704700000010024030B500216D
:100D30000022002400232D4D6D6805F00C0121B127
:100D4000042905D0082923D105E0294D056022E0BA
:100D5000274D05601FE0254D6D6805F47012234D89
:100D60006D6805F48034022505EB92421CB9214DD3
:100D7000554305600BE01D4D6D6805F400351DB150
:100D80001C4D5543056002E0194D5543056002E0D6
:100D9000174D056000BF00BF144D6D6805F0F001F0
:100DA0000909154D6B5C0568DD4045600F4D6D68A8
:100DB00005F4E061090A104D6B5C4568DD40856013
:100DC0000A4D6D6805F46051C90A0B4D6B5C4568AE
:100DD000DD40C560054D6D6805F44041890B074D48
:100DE0006B5CC568B5FBF3F5056130BD00100240D2
:100DF00000127A0000093D000000002010000020D1
:100E00007047000010B502210148FFF705FC10BD36
:100E1000000C014010B501210148FFF7FDFB10BD9A
:100E2000000C014010B510210148FFF7F5FB10BD83
:100E3000000C014010B520210148FFF7EDFB10BD6B
:100E4000000C014008B501210820FFF75FFF3320A7
:100E5000ADF8000048208DF8030003208DF8020053
:100E600069460248FFF704FB08BD0000000C014082
:100E700010B500F001F810BD0CB5002001900090F5
:100E80003348006840F480303149086000BF304882
:100E9000006800F4003000900198401C0190009818
:100EA00018B90198B0F5A06FF1D12948006800F495
:100EB000003010B10120009001E000200090009867
:100EC000012843D12348006840F010002149086000
:100ED0000846006820F0030008600846006840F0FB
:100EE000020008601A48406819494860084640688E
:100EF00048600846406840F48060486008464068A2
:100F000020F47C1048600846406840F4E8104860CF
:100F10000846006840F08070086000BF0C48006818
:100F200000F000700028F9D00948406820F0030064
:100F3000074948600846406840F00200486000BF2A
:100F40000348406800F00C000828F9D10CBD0000EF
:100F500000100240002002402DE9F0470122D10399
:100F60002048FFF766FB0F20FFF76BFA00224FF4D3
:100F700000411C48FFF75DFB00BF4FF400411A48D9
:100F8000FFF74AFB0028F8D000201849088000BF6E
:100F90004FF400411448FFF73FFB0128F8D01348F5
:100FA000008800EB8000440045F6C050844215D212
:100FB0002046FFF737F981460D49FFF7C3F807468A
:100FC0000C49FFF7BFF806464FF08041FFF7ECF8F9
:100FD000054609492846FFF7B5F880464046BDE872
:100FE000F0870000000C0140001001402E0000209E
:100FF000BD3786350000AA4300007A4410B501468B
:101000000020002206E08B5C303B00EB800403EB09
:101010004400521C8B5C002BF5D110BD70470000C2
:1010200010B51348006840F00100114908600846F7
:101030004068104908400E494860084600680E495B
:1010400008400B4908600846006820F480200860CA
:101050000846406820F4FE0048604FF41F00886096
:10106000FFF706FF4FF000600449086010BD000064
:10107000001002400000FFF8FFFFF6FE08ED00E060
:1010800010B50121054800F051F8012805D10449A7
:1010900008600121014800F01EF810BD002C01403D
:1010A000CC00002010B50121074800F03FF80128CE
:1010B00008D106480088401C0449088001210248E4
:1010C00000F009F810BD0000000400402E000020D0
:1010D000CA4302827047CA430282704721B1028824
:1010E00042F00102028004E002884FF6FE731A40CB
:1010F0000280704731B1B0F8442042F40042A0F8B9
:10110000442005E0B0F84420C2F30E02A0F84420C9
:1011100070470146888E70470146088F7047014628
:10112000888F70470146B1F84000704730B50246DD
:10113000002000230024158A05EA0103958905EAA9
:10114000010413B10CB1012000E0002030BD1AB140
:1011500083890B43838102E083898B4383817047BA
:1011600001894FF6F87211400181704770B5002473
:1011700000220023058C4FF6FE7635400584028C54
:101180008388048B4FF68F752C40B51E2C400D883C
:101190002C43751E2A400D892A434D882A43144D3D
:1011A000A8420BD0134DA84208D0134DA84205D039
:1011B000124DA84202D0124DA84213D14FF6F77536
:1011C0002A404D892A434FF6FB752A408D882A43D1
:1011D0004FF6FF652B404FF6FF552B408D892B4373
:1011E000CD892B4383800483CD888586028470BD9E
:1011F000002C014000340140004001400044014007
:101200000048014070B5002400220023058C4FF6F1
:10121000EF7635400584028C8388048B48F6FF7591
:101220002C404FF6FF452C400D884FF6FF7606EA1E
:1012300005252C434FF6DF752A400D8906EA051572
:101240002A434D8806EA05152A43154DA84202D0C7
:10125000144DA8421DD14FF67F752A404D894FF697
:10126000FF7606EA05152A434FF6BF752A408D889A
:1012700006EA05152A434FF6FF352B404FF2FF755E
:101280002B408D8906EA85052B43CD8906EA850525
:101290002B4383800483CD880587028470BD0000C2
:1012A000002C01400034014070B5002400220023CE
:1012B000058C4FF6FF6635400584028C8388848B4D
:1012C0004FF68F752C404FF6FC752C400D882C4343
:1012D0004FF6FF552A400D894FF6FF7606EA0525A1
:1012E0002A434D8806EA05252A43154DA84202D017
:1012F000144DA8421DD14FF2FF752A404D894FF67B
:10130000FF7606EA05252A434FF6FF352A408D88E9
:1013100006EA05252A434EF6FF752B404DF6FF756C
:101320002B408D8906EA05152B43CD8906EA051564
:101330002B4383808483CD888587028470BD000021
:10134000002C01400034014070B50022002300242D
:10135000058C4EF6FF7635400584038C8488828B9D
:1013600048F6FF752A404FF6FF452A400D884FF694
:10137000FF7606EA05252A434DF6FF752B400D89B9
:1013800006EA05352B434D8806EA05352B430B4D00
:10139000A84202D00A4DA84208D14BF6FF752C4056
:1013A0008D894FF6FF7606EA85152C43848082836B
:1013B000CD88A0F84050038470BD0000002C01408F
:1013C000003401400021018041808180C180018181
:1013D00041818181C1817047818670470187704753
:1013E00081877047A0F840107047000000220288F3
:1013F0001D4B98420ED01D4B98420BD0B0F1804F40
:1014000008D01B4B984205D01A4B984202D01A4B79
:10141000984204D14FF68F731A404B881A43174BEA
:10142000984207D0164B984204D04FF6FF431A401B
:10143000CB881A4302808B8883850B8803850A4BEF
:1014400098420BD0094B984208D00E4B984205D0D9
:101450000D4B984202D00D4B984201D10B7A038676
:101460000123838270470000002C014000340140BA
:101470000004004000080040000C00400010004044
:101480000014004000400140004401400048014079
:1014900010B520214A4800F0C0F801287ED1484804
:1014A00000F05AF94749087047480078E8B90846FB
:1014B0000078402806D101204349087000204349A4
:1014C000087077E03F480078212803D103203E4987
:1014D00008706FE03B48007823286BD100203B491F
:1014E000087004203849087064E037480078012803
:1014F00013D1344800780D2803D1022032490870F6
:1015000058E0304800783249304A127888542F48E1
:101510000078401C2D4908704CE02B4800780228C8
:101520000ED1284800780A2844D1002026490870A6
:101530002749264A1278885401202649087039E044
:1015400021480078032814D11E4800780D2803D1C3
:1015500002201D4908702DE01A480078402803D168
:1015600001201D49086025E0164800781B490870D5
:1015700020E01548007804281CD1124800780D2876
:101580000DD1022010490870002111480F4A12782D
:101590008154FFF733FD124908600BE00EE0094863
:1015A00001780B48094A1278815408480078401C99
:1015B000064908702021024800F014F810BD000010
:1015C000003801401C0000201E0000201F000020E9
:1015D000D00000201D00002024000020200000205A
:1015E0002800002010B50022002340F66A14A14212
:1015F00000D100BF0A1201249440A3B2DC4304804E
:1016000010BD21B1828942F40052828104E08289B6
:101610004DF6FF731A408281704702460020B1F5F3
:10162000007F00D100BF13880B400BB1012000E008
:1016300000207047F0B50346002400260025002056
:1016400040F66A17B94200D100BF1846C1F34214F0
:1016500001F01F06012707FA06F5012C01D10C3015
:1016600004E0022C01D1103000E014301AB10768F8
:101670002F43076002E00768AF430760F0BD00003A
:101680002DE9F04786B005460E460024A24600BF6D
:10169000A1460027B08900B100BF2F462C8A4CF626
:1016A000FF700440F08804432C82AC894EF6F3109E
:1016B0000440B08831890843718908430443AC81F0
:1016C000AC8A4FF6FF400440B0890443AC8201A8C5
:1016D000FFF72CFB1F48874202D1DDF810A001E084
:1016E000DDF80CA0A88900F4004040B10AEBCA0064
:1016F00000EB0A1031684900B0FBF1F807E00AEB93
:10170000CA0000EB0A1031688900B0FBF1F86420D0
:10171000B8FBF0F004012009642101FB1089A889BD
:1017200000F4004040B1322000EBC900B0FBF1F002
:1017300000F00700044308E0322000EB09106421A8
:10174000B0FBF1F000F00F0004432C8106B0BDE8BF
:10175000F08700000038014001468888C0F3080087
:101760007047C1F308028280704700BFFEE70000A7
:1017700005480078012804D10020034908700120A1
:1017800070470020FCE700001D00002000B587B076
:1017900001218803FFF7BAFA01210420FFF7B6FA06
:1017A00018208DF81B004FF40070ADF818000320CE
:1017B0008DF81A0006A91F48FEF75AFE48208DF83A
:1017C0001B004FF48060ADF8180003208DF81A005C
:1017D00006A91848FEF74CFE4FF416500290002060
:1017E000ADF814000C20ADF812000020ADF8100088
:1017F000ADF80E00ADF80C0002A90F48FFF740FF4E
:10180000012240F225510C48FFF714FF25208DF8E6
:10181000040001208DF807008DF805008DF8060002
:1018200001A8FFF7C5F801210348FFF7EAFE07B05A
:1018300000BD0000000801400038014070B50546B9
:101840000E46002404E0285D00F006F8601C84B217
:10185000B442F8DB70BD000010B5044621460548CF
:10186000FFF77FFF00BF80210248FFF7D6FE002868
:10187000F9D010BD003801400020014908607047D0
:10188000082C004010B509480078401C0749087032
:10189000084600780A2803DA7F2000F009F802E001
:1018A0000A2002490870FFF7E7FF10BD2C00002056
:1018B00000F07F01014A116070470000002C0040D9
:1018C00002E008C8121F08C1002AFAD17047704709
:1018D000002001E001C1121F002AFBD17047000067
:1018E00010B5FFF78FFA4A490870FFF793FA484995
:1018F0004870FFF797FA46498870FFF79BFA44490A
:10190000C8700846007878B10846407860B9084643
:10191000807848B90846C07830B103203D49087046
:10192000C820FEF710FD6EE03948007878B13848DD
:10193000407860B13648807848B93548C07830B1D1
:10194000042034490870C820FEF75BFD5BE0304896
:10195000007880B12E48407868B12D48807850B129
:101960002B48C07838B906202A4908704FF4967081
:10197000FEF747FD47E02648007878B124484078D4
:1019800060B92348807848B12148C07830B102203E
:1019900020490870C820FEF721FD34E01C4800787B
:1019A00080B91B48407868B11948807850B1184810
:1019B000C07838B10020174908704FF49670FEF7D0
:1019C0000DFD20E012480078E8B111484078D0B110
:1019D0000F488078B8B10E48C078A0B10E480078A2
:1019E000042806D105200B490870FA20FEF709FDEE
:1019F00009E009480078022805D10120054908704E
:101A0000FA20FEF7EBFC034800780349087010BD8C
:101A1000C3000020C7000020C80000202DE9F041CD
:101A2000FFF79AFA0746FEF702FC05460A2095FBE7
:101A3000F0F495FBF0F100FB11561CB916B9FEF756
:101A400095FC1BE000F030F8A04204DA4FF47A7005
:101A5000FEF779FC12E000F027F80A38002803DDD1
:101A600000F022F80A3800E00520A04204DD4FF41F
:101A70007A70FEF755FC01E0FEF778FC6420FEF773
:101A8000D4FCBDE8F08100000348007810B10248A2
:101A9000007870473020FCE72000002001480068F3
:101AA00070470000240000200148006870470000D3
:101AB0002800002070B500F063F94A49087000F072
:101AC00091F94949087008460078484909788842E0
:101AD00001D0FEF74BFC44480078012836D107209E
:101AE00000F03AF90446082000F036F9054625B919
:101AF0004FF47A70FEF727FC27E0FF2D04D14FF456
:101B00007A70FEF70DFC20E024B94FF47A70FEF7EE
:101B10003FFC1AE0FF2C04D14FF47A70FEF74BFC27
:101B200013E00B2000F01EF920B14FF47A70FEF79D
:101B300055FC0AE0092000F015F920B14FF47A7045
:101B4000FEF75FFC01E0FEF711FC42E0264800785A
:101B500002283ED123480078A8B3052000F002F9FE
:101B600020B14FF47A70FEF7EEFB32E0072000F070
:101B7000F9F820B14FF47A70FEF7D2FB29E0082083
:101B800000F0F0F820B14FF47A70FEF701FC20E08D
:101B9000062000F0E7F820B14FF47A70FEF70BFC56
:101BA00017E00B2000F0DEF820B14FF47A70FEF75A
:101BB00015FC0EE0092000F0D5F828B14FF47A703A
:101BC000FEF71FFC05E002E0FEF7D0FB01E0FEF7A8
:101BD000CDFB05480078054908700A20FEF725FC72
:101BE00070BD0000C0000020C1000020C200002025
:101BF0000EB54FF4A060FEF713FFFFF7C7FDFEF729
:101C000085FDFEF723FEFFF71DF9FEF73FFDFEF70A
:101C1000DDFF0121C802FFF779F80020ADF80600CA
:101C2000ADF8020042F20F70ADF8040041F61F401B
:101C3000ADF8000000208DF8080069463A48FFF72B
:101C4000D5FB01213848FFF743FA012211463648F7
:101C5000FFF77DFA01213448FFF74CFA01213248A1
:101C6000FFF73CFA00221146192000F063F85AE011
:101C7000FFF70AFF044600F027F9FFF70FFF0128DE
:101C800051D1FFF701FF303828490870FFF7BAF843
:101C900026494870FFF7BEF824498870FFF7C2F85C
:101CA0002249C870FFF7C6F820490871FFF754F9B8
:101CB0000446FEF7D5FA1D4948714FF08040FFF702
:101CC00028FA04464FF08040FFF726FA20441749CF
:101CD00088714FF08040FFF725FA04464FF08040AE
:101CE000FFF71DFA20441149C8711148FFF714FA93
:101CF00004460F48FFF70DFA20440C4908720C48BF
:101D0000FFF70DFA04460A48FFF70CFA204407498A
:101D100048720A210548FFF791FD002000F0CEF837
:101D20000A20FEF782FBA3E7002C014049010020B6
:101D300000080040F8B506460C4615468DF80060D0
:101D400001208DF803008DF801408DF8025068469F
:101D5000FEF72EFEF8BD000001460148405C7047CA
:101D6000340100200146012901DA00207047481E95
:101D7000024A02EBC0000079F8E7000040000020B2
:101D800070B50025FEF738FF1348C078124909796D
:101D900040EA012011490860042419E0104810F8B5
:101DA0003400401E012101FA00F00C490968084086
:101DB00038B901200A4901EBC4014860681CC5B26A
:101DC00004E00020064901EBC4014860601CC4B275
:101DD000102CE3DB284670BD3401002030000020C9
:101DE000400000200A484078732803D101200949A7
:101DF00008700AE006484078412803D102200549CE
:101E0000087002E00020034908700248007870471B
:101E1000340100203400002010B5FFF7A9FC002891
:101E20003DD01FA11F48FEF77FF920B94FF47A700B
:101E3000FEF789FA33E01CA11A48FEF775F920B9BC
:101E40004FF47A70FEF76CFA29E018A11548FEF7F6
:101E50006BF920B94FF47A70FEF7C0FA1FE014A1B5
:101E60001048FEF761F920B94FF47A70FEF7C9FA0D
:101E700015E010A10B48FEF757F920B94FF47A701E
:101E8000FEF786FA0BE00CA10648FEF74DF920B9E3
:101E90004FF47A70FEF78FFA01E0FEF767FA10BD93
:101EA00057000000D0000020530000005100000047
:101EB00045000000410000004400000001490860A6
:101EC000704700002400002010B50446302C06D0D6
:101ED000312C07D0322C08D0332C0CD108E0FFF77E
:101EE000E9FD08E0FFF798FF05E0FFF7F9FC02E0E5
:101EF000FFF794FD00BF00BF10BD00001C1F0008CD
:101F000000000020D0000000C0180008EC1F0008EE
:101F1000D000002088040000D01800080000000055
:101F2000010203040102030406070809020406086B
:101F300000000000000000000000000000000000A1
:101F4000000000001400000000000000000000007D
:101F5000000142000000000000000000010000003D
:101F6000000000000200000000000000030000006C
:101F70000000000004000000000000000500000058
:101F80000000000006000000000000000700000044
:101F90000000000008000000000000000900000030
:101FA000000000000A000000000000000B0000001C
:101FB000000000000C000000000000000D00000008
:101FC000000000000E000000000000000F000000F4
:101FD00000000000100000000000000000000000F1
:0C1FE000000000000000000000000000F5
:04000005080000ED02
:00000001FF
